:020000040800F2
:1000000000800120F10D0008D90A0008DD0A00086F
:10001000E10A0008E50A0008E90A000800000000FB
:10002000000000000000000000000000ED0A0008D1
:10003000F10A000800000000F50A0008F90A0008AB
:10004000410E0008410E0008410E0008410E000854
:10005000410E0008410E0008410E0008410E000844
:10006000410E0008410E0008410E0008410E000834
:10007000410E0008410E0008410E0008410E000824
:10008000410E0008410E0008410E0008000000006B
:10009000000000000000000000000000410E000809
:1000A000410E0008410E0008410E0008410E0008F4
:1000B000410E0008410E0008410E0008410E0008E4
:1000C000410E0008410E0008410E0008410E0008D4
:1000D000410E0008410E0008410E0008000000001B
:1000E000050B0008410E0008410E0008000000004A
:1000F000000000000000000000000000410E0008A9
:1001000000000000410E0008410E0008410E0008EA
:1001100000000000000000000000000000000000DF
:10012000410E0008410E0008410E0008410E000873
:10013000410E000800000000000000000000000068
:10014000000000000000000000000000410E000858
:10015000410E0008410E0008410E0008410E000843
:10016000410E0008410E00080000000000000000E1
:10017000000000000000000000000000000000007F
:1001800000000000410E0008000000000000000018
:04019000410E000814
:1001940010B5054C237833B9044B13B10448AFF3BD
:1001A40000800123237010BD040000200000000023
:1001B400900E0008084B10B51BB108490848AFF36E
:1001C40000800848036803B910BD074B002BFBD01F
:1001D400BDE81040184700BF0000000008000020E0
:1001E400900E00080400002000000000074AD368B5
:1001F40023F4E0631B041B0C000200F4E0601843CA
:1002040040F0BF6040F40030D060704700ED00E083
:1002140030B4164BDB68C3F30223C3F10704042C88
:1002240028BF04241D1D062D01D9DD1E00E0002574
:10023400012303FA04F4013C2140A940AB40013BF3
:100244001A400A43002806DA00F00F001201D2B265
:10025400074B1A5407E01201D2B200F1604000F5D6
:10026400614080F8002330BC704700BF00ED00E01F
:1002740014ED00E0420900F01F00012303FA00F02E
:10028400014B43F82200704700E100E00138B0F16F
:10029400807F0AD2064B5860F021064A82F8231068
:1002A4000020986007221A6070470120704700BF41
:1002B40010E000E000ED00E0042805D1054A1368D1
:1002C40043F0040313607047024A136823F00403E5
:1002D4001360704710E000E0704700BF08B5FFF7F7
:1002E400FBFF08BDF0B583B00024BBE00123A340AD
:1002F4000A6803EA0205AB4240F0B3804A68022A66
:1003040001D0122A10D1E608083650F826C004F0AD
:10031400070297000F22BA402CEA020E0A69BA407B
:100324004EEA020240F82620026867000326BE4017
:10033400F64302EA060E4A6802F00302BA404EEAA5
:10034400020202604A6802F1FF3EBEF1010F03D9C6
:10035400112A01D0122A10D1826806EA020ECA6854
:10036400BA404EEA02028260426822EA03034A6803
:10037400C2F30012A2401A434260C3681E408B6855
:10038400BB403343C3604B6813F0805F69D00023E4
:100394000193374B5A6C42F480425A645B6C03F409
:1003A40080430193019BA608B21C324B53F82220D0
:1003B40004F003039B000F279F4022EA07072E4AFD
:1003C400904211D002F5806290420FD002F5806213
:1003D40090420DD002F5806290420BD002F580620B
:1003E400904209D1042208E0002206E0012204E040
:1003F400022202E0032200E0072202FA03F33B4355
:1004040002361C4A42F826301C4B1A68EB4302EAB7
:1004140003064F6817F4803F01D045EA0206174AE5
:100424001660526803EA02064F6817F4003F01D0D1
:1004340045EA0206114A5660926803EA02064F68CA
:1004440017F4801F01D045EA02060C4A9660D26870
:1004540013404E6816F4001F01D045EA0203074A10
:10046400D36001340F2C7FF641AF03B0F0BD00BF61
:10047400003802400038014000000240003C0140C6
:100484000AB1816170470904816170474369594029
:100494004161704708B5044B5B69034203D0024BCA
:1004A400586100F0A9FB08BD003C014030B583B0A1
:1004B4000446036813F0010F5AD09F4B9B6803F066
:1004C4000C03042B0AD09C4B9B6803F00C03082BF1
:1004D4000DD1994B5B6813F4800F08D0964B1B68C1
:1004E40013F4003F44D06368002B41D19DE163685D
:1004F400B3F5803F05D1904A136843F48033136009
:1005040015E0B3F5A02F09D18B4B1A6842F4802271
:100514001A601A6842F480321A6008E0864B1A683E
:1005240022F480321A601A6822F480221A60636806
:100534007BB100F043FC054605E000F03FFC401BA6
:10054400642800F274817C4B1B6813F4003FF4D0E0
:100554000EE000F033FC054605E000F02FFC401BE4
:10056400642800F26681744B1B6813F4003FF4D1D5
:10057400236813F0020F5AD06F4B9B6813F00C0FD3
:100584000AD06D4B9B6803F00C03082B1BD16A4BFC
:100594005B6813F4800F16D1674B1B6813F0020FCE
:1005A40003D0E368012B40F046816348036823F0DD
:1005B400F8012369F82292FAA2F2B2FA82F2934085
:1005C4000B43036033E0E368FBB101225B4B1A6029
:1005D40000F0F4FB054605E000F0F0FB401B0228A8
:1005E40000F22B81544B1B6813F0020FF4D05248D5
:1005F400036823F0F8012369F82292FAA2F2B2FA0E
:1006040082F293400B43036011E000224B4B1A60CB
:1006140000F0D4FB054605E000F0D0FB401B0228A7
:1006240000F20D81444B1B6813F0020FF4D12368D0
:1006340013F0080F26D0636993B10122404B1A606E
:1006440000F0BCFB054605E000F0B8FB401B0228A7
:1006540000F2F780384B5B6F13F0020FF4D011E017
:100664000022374B1A6000F0A9FB054605E000F0B4
:10067400A5FB401B022800F2E6802F4B5B6F13F0B2
:10068400020FF4D1236813F0040F69D000230193FF
:10069400294B1A6C42F080521A641B6C03F080538D
:1006A4000193019B274A136843F48073136000F09D
:1006B40085FB054605E000F081FB401B022800F2A3
:1006C400C480204B1B6813F4807FF4D0A368012BF3
:1006D40005D1194A136F43F00103136714E0052B86
:1006E40009D1154B1A6F42F004021A671A6F42F0CF
:1006F40001021A6708E0104B1A6F22F001021A6710
:100704001A6F22F004021A67A3688BB100F056FB3B
:10071400054607E000F052FB401B41F28833984243
:1007240000F29580044B1B6F13F0020FF2D017E018
:1007340000F044FB05460EE000380240000047424A
:10074400800E47420070004000F038FB401B41F22D
:10075400883398427DD8454B1B6F13F0020FF3D1B9
:10076400A369002B77D0414A926802F00C02082A50
:1007740073D0022B46D100223D4B1A6000F01EFBC1
:10078400054604E000F01AFB401B022867D8374BEB
:100794001B6813F0007FF5D1E169236A1943636A8A
:1007A40047F6C07292FAA2F2B2FA82F29340194367
:1007B400A36A5B085A1E4FF4403393FAA3F3B3FAC7
:1007C40083F302FA03F30B43E26A4FF0706191FA88
:1007D400A1F1B1FA81F18A401343244A5360012202
:1007E400234B1A6000F0EAFA044604E000F0E6FA4B
:1007F400001B022835D81D4B1B6813F0007FF5D071
:10080400002031E000221A4B1A6000F0D7FA0446A7
:1008140004E000F0D3FA001B022824D8134B1B6811
:1008240013F0007FF5D100201EE001201CE003201E
:100834001AE0032018E0012016E0032014E003204E
:1008440012E0032010E003200EE003200CE003205C
:100854000AE0032008E0002006E0012004E0032071
:1008640002E0032000E0032003B030BD0038024062
:1008740060004742254B9B6803F00C03042B3FD0D8
:10088400082B01D02248704710B4204B586800F060
:100894003F005B6813F4800F10D01E4BB3FBF0F0E5
:1008A4001A4B5A6847F6C0710A4091FAA1F3B3FA99
:1008B40083F322FA03F303FB00F310E0144BB3FBBE
:1008C400F0F0124B5A6847F6C07402EA040194FA35
:1008D400A4F2B2FA82F221FA02F202FB00F30B4A0A
:1008E400506800F440324FF4403090FAA0F0B0FA6F
:1008F40080F022FA00F001304000B3FBF0F001E098
:10090400044870475DF8044B704700BF003802404C
:100914000024F40000127A0070B5674B1B6803F0E2
:100924000F038B4208D2CBB2634A1370136803F0EF
:100934000F03994240F0AE80036813F0020F06D013
:100944005E4CA36823F0F00283681343A3600D4652
:100954000446036813F0010F60D04268012A05D1F0
:10096400564B1B6813F4003F0FD195E0931E012BE7
:1009740005D8524B1B6813F0007F06D18EE04F4B15
:100984001B6813F0020F00F08B804C498B6823F036
:10099400030313438B6000F011FA06466368012BCE
:1009A4000ED106E000F00AFA801B41F28833984227
:1009B40078D8424B9B6803F00C03042BF2D12DE052
:1009C400022B0ED106E000F0F9F9801B41F28833C6
:1009D400984269D8394B9B6803F00C03082BF2D179
:1009E4001CE0032B15D106E000F0E8F9801B41F26E
:1009F400883398425AD8314B9B6803F00C030C2B74
:100A0400F2D10BE000F0DAF9801B41F2883398420E
:100A14004ED82A4B9B6813F00C0FF3D1264B1B685E
:100A240003F00F039D4207D2EAB2234B1A701B68EE
:100A340003F00F039D423DD1236813F0040F06D049
:100A44001E498B6823F4E052E36813438B602368E8
:100A540013F0080F07D0194A936823F460432169FF
:100A640043EAC1039360FFF705FF144B9B6803F04F
:100A7400F002F02393FAA3F3B3FA83F322FA03F315
:100A84000F4AD35CD8400F4B1860002000F05EF989
:100A9400002070BD012070BD012070BD012070BD1B
:100AA400012070BD032070BD032070BD032070BD04
:100AB400032070BD012070BD003C0240003802409C
:100AC400A80E000800000020014B1868704700BF02
:100AD40000000020704700BFFEE700BFFEE700BF34
:100AE400FEE700BFFEE700BF704700BF704700BFCE
:100AF400704700BF08B500F059F9FFF7EFFB08BDD8
:100B040008B54FF40050FFF7C5FC08BD0F49D1F8F4
:100B1400883043F47003C1F888300D4B1A6842F0F2
:100B240001021A60002098601A6822F0847222F48C
:100B340080321A60074A5A601A6822F480221A60C6
:100B4400D8604FF000638B60704700BF00ED00E099
:100B5400003802401030002470B588B0002400949E
:100B64001C4B1A6B42F004021A631A6B02F0040263
:100B74000092009A01941A6B42F080021A631A6B75
:100B840002F080020192019A02941A6B42F001026F
:100B94001A631B6B03F001030293029B0E4D224662
:100BA40020212846FFF76CFC4FF4005303930B4BB2
:100BB40004930126059603A90948FFF793FB202314
:100BC400039304960594069403A92846FFF78AFB29
:100BD40008B070BD0038024000000240000021103F
:100BE4000008024008B5002211462820FFF710FB38
:100BF4002820FFF73FFB08BD08B520210148FFF777
:100C040045FC08BD00000240FEE700BF00B595B0FA
:100C1400002101912A4B1A6C42F080521A641B6C19
:100C240003F080530193019B0291264A136823F435
:100C3400404343F400431360136803F440430293B6
:100C4400029B012308934FF48033099302230E93EC
:100C54004FF480020F9208221092A822119212934C
:100C64000423139308A8FFF721FC18B18D2116481B
:100C7400FFF7CAFF0F230393022104910023059376
:100C84004FF480520692079303A8FFF745FE18B16C
:100C94009B210D48FFF7B8FFFFF716FF0B4BA3FB93
:100CA40000308009FFF7F2FA0420FFF705FB002269
:100CB40011464FF0FF30FFF7ABFA15B05DF804FBB7
:100CC4000038024000700040B80E0008D34D621096
:100CD40008B500F051F8FFF799FFFFF73DFFFFF764
:100CE40081FF642000F070F8FBE700BF08B5032023
:100CF400FFF77CFA002211466FF00B00FFF788FA29
:100D0400002211466FF00A00FFF782FA0022114612
:100D14006FF00900FFF77CFA002211466FF004001F
:100D2400FFF776FA002211466FF00300FFF770FA1E
:100D3400002211466FF00100FFF76AFA0022114603
:100D44004FF0FF30FFF764FA08BD00BF10B504464A
:100D5400074B1B680748A0FB03308009FFF796FA8E
:100D6400002221464FF0FF30FFF752FA002010BD59
:100D740000000020D34D621008B50B4B1A6842F4F2
:100D840000721A601A6842F480621A601A6842F4A7
:100D940080721A600320FFF729FA0020FFF7D6FFBC
:100DA400FFF7A4FF002008BD003C0240024A13687C
:100DB40001331360704700BF20000020014B186806
:100DC400704700BF2000002030B583B00190FFF7CA
:100DD400F5FF0546019CB4F1FF3F00D00134FFF755
:100DE400EDFF401BA042FAD303B030BDDFF834D08E
:100DF400002103E00C4B5B58435004310B480C4B6F
:100E040042189A42F6D30B4A02E0002342F8043B0C
:100E1400094B9A42F9D3FFF779FE00F011F8FFF776
:100E240057FF704700800120CC0E0008000000200E
:100E3400040000200400002024000020FEE700003D
:100E440070B50E4B0E4CE41AA41000251E46A542A4
:100E540004D056F8253098470135F8E700F016F825
:100E6400084C094BE41AA41000251E46A54204D0E0
:100E740056F8253098470135F8E770BDC40E0008D0
:100E8400C40E0008C80E0008C40E0008F8B500BF60
:100E9400F8BC08BC9E467047F8B500BFF8BC08BC57
:040EA4009E467047AF
:100EA8000000000000000000010203040607080912
:0C0EB8005372632F6D61696E2E630000A1
:040EC400B901000868
:040EC8009501000888
:040ECC000024F4000A
:0400000508000DF1F1
:00000001FF
